{
  "contractName": "GiftCard",
  "abi": [
    {
      "inputs": [],
      "stateMutability": "nonpayable",
      "type": "constructor"
    },
    {
      "anonymous": false,
      "inputs": [
        {
          "indexed": false,
          "internalType": "uint256",
          "name": "cardId",
          "type": "uint256"
        },
        {
          "indexed": false,
          "internalType": "string",
          "name": "email",
          "type": "string"
        },
        {
          "indexed": false,
          "internalType": "string",
          "name": "country",
          "type": "string"
        },
        {
          "indexed": false,
          "internalType": "string",
          "name": "phone",
          "type": "string"
        },
        {
          "indexed": false,
          "internalType": "uint256",
          "name": "monto",
          "type": "uint256"
        },
        {
          "indexed": false,
          "internalType": "string",
          "name": "concepto",
          "type": "string"
        }
      ],
      "name": "CardCreated",
      "type": "event"
    },
    {
      "anonymous": false,
      "inputs": [
        {
          "indexed": false,
          "internalType": "uint256",
          "name": "cardId",
          "type": "uint256"
        }
      ],
      "name": "CardRedeemed",
      "type": "event"
    },
    {
      "inputs": [
        {
          "internalType": "uint256",
          "name": "",
          "type": "uint256"
        }
      ],
      "name": "cardData",
      "outputs": [
        {
          "internalType": "string",
          "name": "email",
          "type": "string"
        },
        {
          "internalType": "string",
          "name": "country",
          "type": "string"
        },
        {
          "internalType": "string",
          "name": "phone",
          "type": "string"
        },
        {
          "internalType": "uint256",
          "name": "monto",
          "type": "uint256"
        },
        {
          "internalType": "string",
          "name": "concepto",
          "type": "string"
        },
        {
          "internalType": "bool",
          "name": "redeemed",
          "type": "bool"
        }
      ],
      "stateMutability": "view",
      "type": "function",
      "constant": true
    },
    {
      "inputs": [
        {
          "internalType": "uint256",
          "name": "",
          "type": "uint256"
        }
      ],
      "name": "cards",
      "outputs": [
        {
          "internalType": "bool",
          "name": "",
          "type": "bool"
        }
      ],
      "stateMutability": "view",
      "type": "function",
      "constant": true
    },
    {
      "inputs": [],
      "name": "cardsCount",
      "outputs": [
        {
          "internalType": "uint256",
          "name": "",
          "type": "uint256"
        }
      ],
      "stateMutability": "view",
      "type": "function",
      "constant": true
    },
    {
      "inputs": [],
      "name": "owner",
      "outputs": [
        {
          "internalType": "address",
          "name": "",
          "type": "address"
        }
      ],
      "stateMutability": "view",
      "type": "function",
      "constant": true
    },
    {
      "inputs": [
        {
          "internalType": "uint256",
          "name": "cardId",
          "type": "uint256"
        },
        {
          "internalType": "string",
          "name": "email",
          "type": "string"
        },
        {
          "internalType": "string",
          "name": "country",
          "type": "string"
        },
        {
          "internalType": "string",
          "name": "phone",
          "type": "string"
        },
        {
          "internalType": "uint256",
          "name": "monto",
          "type": "uint256"
        },
        {
          "internalType": "string",
          "name": "concepto",
          "type": "string"
        }
      ],
      "name": "createCard",
      "outputs": [],
      "stateMutability": "nonpayable",
      "type": "function"
    },
    {
      "inputs": [
        {
          "internalType": "uint256",
          "name": "cardId",
          "type": "uint256"
        }
      ],
      "name": "redeemCard",
      "outputs": [],
      "stateMutability": "nonpayable",
      "type": "function"
    },
    {
      "inputs": [
        {
          "internalType": "uint256",
          "name": "cardId",
          "type": "uint256"
        }
      ],
      "name": "isCardRedeemed",
      "outputs": [
        {
          "internalType": "bool",
          "name": "",
          "type": "bool"
        }
      ],
      "stateMutability": "view",
      "type": "function",
      "constant": true
    },
    {
      "inputs": [],
      "name": "getCardsCount",
      "outputs": [
        {
          "internalType": "uint256",
          "name": "",
          "type": "uint256"
        }
      ],
      "stateMutability": "view",
      "type": "function",
      "constant": true
    },
    {
      "inputs": [
        {
          "internalType": "uint256",
          "name": "index",
          "type": "uint256"
        }
      ],
      "name": "getCardIdAtIndex",
      "outputs": [
        {
          "internalType": "uint256",
          "name": "",
          "type": "uint256"
        }
      ],
      "stateMutability": "view",
      "type": "function",
      "constant": true
    },
    {
      "inputs": [
        {
          "internalType": "uint256",
          "name": "cardId",
          "type": "uint256"
        }
      ],
      "name": "getCardData",
      "outputs": [
        {
          "components": [
            {
              "internalType": "string",
              "name": "email",
              "type": "string"
            },
            {
              "internalType": "string",
              "name": "country",
              "type": "string"
            },
            {
              "internalType": "string",
              "name": "phone",
              "type": "string"
            },
            {
              "internalType": "uint256",
              "name": "monto",
              "type": "uint256"
            },
            {
              "internalType": "string",
              "name": "concepto",
              "type": "string"
            },
            {
              "internalType": "bool",
              "name": "redeemed",
              "type": "bool"
            }
          ],
          "internalType": "struct GiftCard.CardData",
          "name": "",
          "type": "tuple"
        }
      ],
      "stateMutability": "view",
      "type": "function",
      "constant": true
    },
    {
      "inputs": [],
      "name": "getAllCards",
      "outputs": [
        {
          "components": [
            {
              "internalType": "string",
              "name": "email",
              "type": "string"
            },
            {
              "internalType": "string",
              "name": "country",
              "type": "string"
            },
            {
              "internalType": "string",
              "name": "phone",
              "type": "string"
            },
            {
              "internalType": "uint256",
              "name": "monto",
              "type": "uint256"
            },
            {
              "internalType": "string",
              "name": "concepto",
              "type": "string"
            },
            {
              "internalType": "bool",
              "name": "redeemed",
              "type": "bool"
            }
          ],
          "internalType": "struct GiftCard.CardData[]",
          "name": "",
          "type": "tuple[]"
        }
      ],
      "stateMutability": "view",
      "type": "function",
      "constant": true
    }
  ],
  "bytecode": "0x608060405234801561001057600080fd5b50336000806101000a81548173ffffffffffffffffffffffffffffffffffffffff021916908373ffffffffffffffffffffffffffffffffffffffff160217905550611e1e806100606000396000f3fe608060405234801561001057600080fd5b50600436106100a95760003560e01c80638da5cb5b116100715780638da5cb5b146101785780638dc1076814610196578063992cf122146101c6578063bd6c6756146101e2578063cea1351614610200578063fea9d9111461021e576100a9565b8063221b5fad146100ae5780632430a49a146100cc578063535e2c65146100fc5780635efb603214610118578063886377b514610148575b600080fd5b6100b6610253565b6040516100c3919061105c565b60405180910390f35b6100e660048036038101906100e191906110b7565b61025d565b6040516100f3919061105c565b60405180910390f35b6101166004803603810190610111919061122a565b61034b565b005b610132600480360381019061012d91906110b7565b61058f565b60405161013f9190611342565b60405180910390f35b610162600480360381019061015d91906110b7565b6105bc565b60405161016f9190611498565b60405180910390f35b6101806108b6565b60405161018d91906114fb565b60405180910390f35b6101b060048036038101906101ab91906110b7565b6108da565b6040516101bd9190611342565b60405180910390f35b6101e060048036038101906101db91906110b7565b6108fa565b005b6101ea610a38565b6040516101f7919061105c565b60405180910390f35b610208610a3e565b6040516102159190611676565b60405180910390f35b610238600480360381019061023391906110b7565b610da2565b60405161024a969594939291906116e2565b60405180910390f35b6000600154905090565b600060015482106102a3576040517f08c379a000000000000000000000000000000000000000000000000000000000815260040161029a906117ab565b60405180910390fd5b6000805b60015481101561030a576002600082815260200190815260200160002060009054906101000a900460ff16156102f7578382036102e8578092505050610346565b81806102f3906117fa565b9250505b8080610302906117fa565b9150506102a7565b506040517f08c379a000000000000000000000000000000000000000000000000000000000815260040161033d9061188e565b60405180910390fd5b919050565b60008054906101000a900473ffffffffffffffffffffffffffffffffffffffff1673ffffffffffffffffffffffffffffffffffffffff163373ffffffffffffffffffffffffffffffffffffffff16146103d9576040517f08c379a00000000000000000000000000000000000000000000000000000000081526004016103d0906118fa565b60405180910390fd5b6002600087815260200190815260200160002060009054906101000a900460ff161561043a576040517f08c379a000000000000000000000000000000000000000000000000000000000815260040161043190611966565b60405180910390fd5b60016002600088815260200190815260200160002060006101000a81548160ff0219169083151502179055506040518060c00160405280868152602001858152602001848152602001838152602001828152602001600015158152506003600088815260200190815260200160002060008201518160000190816104be9190611b92565b5060208201518160010190816104d49190611b92565b5060408201518160020190816104ea9190611b92565b5060608201518160030155608082015181600401908161050a9190611b92565b5060a08201518160050160006101000a81548160ff02191690831515021790555090505060016000815480929190610541906117fa565b91905055507fbf9062720683e17eba93d4f2cceb1508729b015c637c7de80c0429f47118d15e86868686868660405161057f96959493929190611c64565b60405180910390a1505050505050565b60006003600083815260200190815260200160002060050160009054906101000a900460ff169050919050565b6105c461100b565b6002600083815260200190815260200160002060009054906101000a900460ff16610624576040517f08c379a000000000000000000000000000000000000000000000000000000000815260040161061b90611d2d565b60405180910390fd5b600360008381526020019081526020016000206040518060c0016040529081600082018054610652906119b5565b80601f016020809104026020016040519081016040528092919081815260200182805461067e906119b5565b80156106cb5780601f106106a0576101008083540402835291602001916106cb565b820191906000526020600020905b8154815290600101906020018083116106ae57829003601f168201915b505050505081526020016001820180546106e4906119b5565b80601f0160208091040260200160405190810160405280929190818152602001828054610710906119b5565b801561075d5780601f106107325761010080835404028352916020019161075d565b820191906000526020600020905b81548152906001019060200180831161074057829003601f168201915b50505050508152602001600282018054610776906119b5565b80601f01602080910402602001604051908101604052809291908181526020018280546107a2906119b5565b80156107ef5780601f106107c4576101008083540402835291602001916107ef565b820191906000526020600020905b8154815290600101906020018083116107d257829003601f168201915b5050505050815260200160038201548152602001600482018054610812906119b5565b80601f016020809104026020016040519081016040528092919081815260200182805461083e906119b5565b801561088b5780601f106108605761010080835404028352916020019161088b565b820191906000526020600020905b81548152906001019060200180831161086e57829003601f168201915b505050505081526020016005820160009054906101000a900460ff1615151515815250509050919050565b60008054906101000a900473ffffffffffffffffffffffffffffffffffffffff1681565b60026020528060005260406000206000915054906101000a900460ff1681565b6002600082815260200190815260200160002060009054906101000a900460ff1661095a576040517f08c379a000000000000000000000000000000000000000000000000000000000815260040161095190611d2d565b60405180910390fd5b6109638161058f565b156109a3576040517f08c379a000000000000000000000000000000000000000000000000000000000815260040161099a90611d99565b60405180910390fd5b60006002600083815260200190815260200160002060006101000a81548160ff02191690831515021790555060016003600083815260200190815260200160002060050160006101000a81548160ff0219169083151502179055507f604d6de1b6eb3f39c6ab9d4981a20d17f88c5bef33495ae58dabeb097ba7a41a81604051610a2d919061105c565b60405180910390a150565b60015481565b6060600060015467ffffffffffffffff811115610a5e57610a5d6110ff565b5b604051908082528060200260200182016040528015610a9757816020015b610a8461100b565b815260200190600190039081610a7c5790505b5090506000805b600154811015610d99576002600082815260200190815260200160002060009054906101000a900460ff1615610d8657600360008281526020019081526020016000206040518060c0016040529081600082018054610afc906119b5565b80601f0160208091040260200160405190810160405280929190818152602001828054610b28906119b5565b8015610b755780601f10610b4a57610100808354040283529160200191610b75565b820191906000526020600020905b815481529060010190602001808311610b5857829003601f168201915b50505050508152602001600182018054610b8e906119b5565b80601f0160208091040260200160405190810160405280929190818152602001828054610bba906119b5565b8015610c075780601f10610bdc57610100808354040283529160200191610c07565b820191906000526020600020905b815481529060010190602001808311610bea57829003601f168201915b50505050508152602001600282018054610c20906119b5565b80601f0160208091040260200160405190810160405280929190818152602001828054610c4c906119b5565b8015610c995780601f10610c6e57610100808354040283529160200191610c99565b820191906000526020600020905b815481529060010190602001808311610c7c57829003601f168201915b5050505050815260200160038201548152602001600482018054610cbc906119b5565b80601f0160208091040260200160405190810160405280929190818152602001828054610ce8906119b5565b8015610d355780601f10610d0a57610100808354040283529160200191610d35565b820191906000526020600020905b815481529060010190602001808311610d1857829003601f168201915b505050505081526020016005820160009054906101000a900460ff161515151581525050838381518110610d6c57610d6b611db9565b5b60200260200101819052508180610d82906117fa565b9250505b8080610d91906117fa565b915050610a9e565b50819250505090565b6003602052806000526040600020600091509050806000018054610dc5906119b5565b80601f0160208091040260200160405190810160405280929190818152602001828054610df1906119b5565b8015610e3e5780601f10610e1357610100808354040283529160200191610e3e565b820191906000526020600020905b815481529060010190602001808311610e2157829003601f168201915b505050505090806001018054610e53906119b5565b80601f0160208091040260200160405190810160405280929190818152602001828054610e7f906119b5565b8015610ecc5780601f10610ea157610100808354040283529160200191610ecc565b820191906000526020600020905b815481529060010190602001808311610eaf57829003601f168201915b505050505090806002018054610ee1906119b5565b80601f0160208091040260200160405190810160405280929190818152602001828054610f0d906119b5565b8015610f5a5780601f10610f2f57610100808354040283529160200191610f5a565b820191906000526020600020905b815481529060010190602001808311610f3d57829003601f168201915b505050505090806003015490806004018054610f75906119b5565b80601f0160208091040260200160405190810160405280929190818152602001828054610fa1906119b5565b8015610fee5780601f10610fc357610100808354040283529160200191610fee565b820191906000526020600020905b815481529060010190602001808311610fd157829003601f168201915b5050505050908060050160009054906101000a900460ff16905086565b6040518060c0016040528060608152602001606081526020016060815260200160008152602001606081526020016000151581525090565b6000819050919050565b61105681611043565b82525050565b6000602082019050611071600083018461104d565b92915050565b6000604051905090565b600080fd5b600080fd5b61109481611043565b811461109f57600080fd5b50565b6000813590506110b18161108b565b92915050565b6000602082840312156110cd576110cc611081565b5b60006110db848285016110a2565b91505092915050565b600080fd5b600080fd5b6000601f19601f8301169050919050565b7f4e487b7100000000000000000000000000000000000000000000000000000000600052604160045260246000fd5b611137826110ee565b810181811067ffffffffffffffff82111715611156576111556110ff565b5b80604052505050565b6000611169611077565b9050611175828261112e565b919050565b600067ffffffffffffffff821115611195576111946110ff565b5b61119e826110ee565b9050602081019050919050565b82818337600083830152505050565b60006111cd6111c88461117a565b61115f565b9050828152602081018484840111156111e9576111e86110e9565b5b6111f48482856111ab565b509392505050565b600082601f830112611211576112106110e4565b5b81356112218482602086016111ba565b91505092915050565b60008060008060008060c0878903121561124757611246611081565b5b600061125589828a016110a2565b965050602087013567ffffffffffffffff81111561127657611275611086565b5b61128289828a016111fc565b955050604087013567ffffffffffffffff8111156112a3576112a2611086565b5b6112af89828a016111fc565b945050606087013567ffffffffffffffff8111156112d0576112cf611086565b5b6112dc89828a016111fc565b93505060806112ed89828a016110a2565b92505060a087013567ffffffffffffffff81111561130e5761130d611086565b5b61131a89828a016111fc565b9150509295509295509295565b60008115159050919050565b61133c81611327565b82525050565b60006020820190506113576000830184611333565b92915050565b600081519050919050565b600082825260208201905092915050565b60005b8381101561139757808201518184015260208101905061137c565b60008484015250505050565b60006113ae8261135d565b6113b88185611368565b93506113c8818560208601611379565b6113d1816110ee565b840191505092915050565b6113e581611043565b82525050565b6113f481611327565b82525050565b600060c083016000830151848203600086015261141782826113a3565b9150506020830151848203602086015261143182826113a3565b9150506040830151848203604086015261144b82826113a3565b915050606083015161146060608601826113dc565b506080830151848203608086015261147882826113a3565b91505060a083015161148d60a08601826113eb565b508091505092915050565b600060208201905081810360008301526114b281846113fa565b905092915050565b600073ffffffffffffffffffffffffffffffffffffffff82169050919050565b60006114e5826114ba565b9050919050565b6114f5816114da565b82525050565b600060208201905061151060008301846114ec565b92915050565b600081519050919050565b600082825260208201905092915050565b6000819050602082019050919050565b600060c083016000830151848203600086015261155f82826113a3565b9150506020830151848203602086015261157982826113a3565b9150506040830151848203604086015261159382826113a3565b91505060608301516115a860608601826113dc565b50608083015184820360808601526115c082826113a3565b91505060a08301516115d560a08601826113eb565b508091505092915050565b60006115ec8383611542565b905092915050565b6000602082019050919050565b600061160c82611516565b6116168185611521565b93508360208202850161162885611532565b8060005b85811015611664578484038952815161164585826115e0565b9450611650836115f4565b925060208a0199505060018101905061162c565b50829750879550505050505092915050565b600060208201905081810360008301526116908184611601565b905092915050565b600082825260208201905092915050565b60006116b48261135d565b6116be8185611698565b93506116ce818560208601611379565b6116d7816110ee565b840191505092915050565b600060c08201905081810360008301526116fc81896116a9565b9050818103602083015261171081886116a9565b9050818103604083015261172481876116a9565b9050611733606083018661104d565b818103608083015261174581856116a9565b905061175460a0830184611333565b979650505050505050565b7f496e646578206f7574206f6620626f756e647300000000000000000000000000600082015250565b6000611795601383611698565b91506117a08261175f565b602082019050919050565b600060208201905081810360008301526117c481611788565b9050919050565b7f4e487b7100000000000000000000000000000000000000000000000000000000600052601160045260246000fd5b600061180582611043565b91507fffffffffffffffffffffffffffffffffffffffffffffffffffffffffffffffff8203611837576118366117cb565b5b600182019050919050565b7f496e646578206e6f7420666f756e640000000000000000000000000000000000600082015250565b6000611878600f83611698565b915061188382611842565b602082019050919050565b600060208201905081810360008301526118a78161186b565b9050919050565b7f4e6f7420746865206f776e657200000000000000000000000000000000000000600082015250565b60006118e4600d83611698565b91506118ef826118ae565b602082019050919050565b60006020820190508181036000830152611913816118d7565b9050919050565b7f4361726420616c72656164792065786973747300000000000000000000000000600082015250565b6000611950601383611698565b915061195b8261191a565b602082019050919050565b6000602082019050818103600083015261197f81611943565b9050919050565b7f4e487b7100000000000000000000000000000000000000000000000000000000600052602260045260246000fd5b600060028204905060018216806119cd57607f821691505b6020821081036119e0576119df611986565b5b50919050565b60008190508160005260206000209050919050565b60006020601f8301049050919050565b600082821b905092915050565b600060088302611a487fffffffffffffffffffffffffffffffffffffffffffffffffffffffffffffffff82611a0b565b611a528683611a0b565b95508019841693508086168417925050509392505050565b6000819050919050565b6000611a8f611a8a611a8584611043565b611a6a565b611043565b9050919050565b6000819050919050565b611aa983611a74565b611abd611ab582611a96565b848454611a18565b825550505050565b600090565b611ad2611ac5565b611add818484611aa0565b505050565b5b81811015611b0157611af6600082611aca565b600181019050611ae3565b5050565b601f821115611b4657611b17816119e6565b611b20846119fb565b81016020851015611b2f578190505b611b43611b3b856119fb565b830182611ae2565b50505b505050565b600082821c905092915050565b6000611b6960001984600802611b4b565b1980831691505092915050565b6000611b828383611b58565b9150826002028217905092915050565b611b9b8261135d565b67ffffffffffffffff811115611bb457611bb36110ff565b5b611bbe82546119b5565b611bc9828285611b05565b600060209050601f831160018114611bfc5760008415611bea578287015190505b611bf48582611b76565b865550611c5c565b601f198416611c0a866119e6565b60005b82811015611c3257848901518255600182019150602085019450602081019050611c0d565b86831015611c4f5784890151611c4b601f891682611b58565b8355505b6001600288020188555050505b505050505050565b600060c082019050611c79600083018961104d565b8181036020830152611c8b81886116a9565b90508181036040830152611c9f81876116a9565b90508181036060830152611cb381866116a9565b9050611cc2608083018561104d565b81810360a0830152611cd481846116a9565b9050979650505050505050565b7f4361726420646f6573206e6f7420657869737400000000000000000000000000600082015250565b6000611d17601383611698565b9150611d2282611ce1565b602082019050919050565b60006020820190508181036000830152611d4681611d0a565b9050919050565b7f4361726420616c72656164792072656465656d65640000000000000000000000600082015250565b6000611d83601583611698565b9150611d8e82611d4d565b602082019050919050565b60006020820190508181036000830152611db281611d76565b9050919050565b7f4e487b7100000000000000000000000000000000000000000000000000000000600052603260045260246000fdfea264697066735822122009c659e297b25c6e75ab1e0ef9433eefaba6d3a8a24da176ae19ce0110ea67ed64736f6c63430008120033",
  "immutableReferences": {},
  "source": "// SPDX-License-Identifier: MIT\r\npragma solidity ^0.8.0;\r\n\r\ncontract GiftCard {\r\n    address public owner;\r\n    uint256 public cardsCount;\r\n    mapping(uint256 => bool) public cards;\r\n    mapping(uint256 => CardData) public cardData;\r\n\r\n    event CardCreated(uint256 cardId, string email, string country, string phone, uint256 monto, string concepto);\r\n    event CardRedeemed(uint256 cardId);\r\n\r\n    struct CardData {\r\n        string email;\r\n        string country;\r\n        string phone;\r\n        uint256 monto;\r\n        string concepto;\r\n        bool redeemed;\r\n    }\r\n\r\n    constructor() {\r\n        owner = msg.sender;\r\n    }\r\n\r\n    modifier onlyOwner() {\r\n        require(msg.sender == owner, \"Not the owner\");\r\n        _;\r\n    }\r\n\r\n    function createCard(\r\n        uint256 cardId,\r\n        string memory email,\r\n        string memory country,\r\n        string memory phone,\r\n        uint256 monto,\r\n        string memory concepto\r\n    ) external onlyOwner {\r\n        require(!cards[cardId], \"Card already exists\");\r\n        cards[cardId] = true;\r\n        cardData[cardId] = CardData(email, country, phone, monto, concepto, false);\r\n        cardsCount++;\r\n        emit CardCreated(cardId, email, country, phone, monto, concepto);\r\n    }\r\n\r\n    function redeemCard(uint256 cardId) external {\r\n        require(cards[cardId], \"Card does not exist\");\r\n        require(!isCardRedeemed(cardId), \"Card already redeemed\");\r\n        cards[cardId] = false;\r\n        cardData[cardId].redeemed = true;\r\n        emit CardRedeemed(cardId);\r\n    }\r\n\r\n    function isCardRedeemed(uint256 cardId) public view returns (bool) {\r\n        return cardData[cardId].redeemed;\r\n    }\r\n\r\n    function getCardsCount() external view returns (uint256) {\r\n        return cardsCount;\r\n    }\r\n\r\n    function getCardIdAtIndex(uint256 index) external view returns (uint256) {\r\n        require(index < cardsCount, \"Index out of bounds\");\r\n        uint256 count = 0;\r\n        for (uint256 i = 0; i < cardsCount; i++) {\r\n            if (cards[i]) {\r\n                if (count == index) {\r\n                    return i;\r\n                }\r\n                count++;\r\n            }\r\n        }\r\n        revert(\"Index not found\");\r\n    }\r\n\r\n    function getCardData(uint256 cardId) external view returns (CardData memory) {\r\n        require(cards[cardId], \"Card does not exist\");\r\n        return cardData[cardId];\r\n    }\r\n\r\n    function getAllCards() external view returns (CardData[] memory) {\r\n        CardData[] memory allCards = new CardData[](cardsCount);\r\n\r\n        uint256 currentIndex = 0;\r\n        for (uint256 i = 0; i < cardsCount; i++) {\r\n            if (cards[i]) {\r\n                allCards[currentIndex] = cardData[i];\r\n                currentIndex++;\r\n            }\r\n        }\r\n\r\n        return allCards;\r\n    }\r\n}",
  "sourcePath": "C:\\Users\\Alam\\Desktop\\blockchain-gift-cards\\front\\contracts\\GiftCard.sol",
  "compiler": {
    "name": "solc",
    "version": "0.8.18+commit.87f61d96.Emscripten.clang"
  },
  "schemaVersion": "3.4.16",
  "updatedAt": "2023-12-13T06:22:30.493Z",
  "networkType": "ethereum",
  "devdoc": {
    "kind": "dev",
    "methods": {},
    "version": 1
  },
  "userdoc": {
    "kind": "user",
    "methods": {},
    "version": 1
  }
}